S00E00003132386134752E7372656371
S11300007EC1000098C1000096C1000094C10000A8
S113001092C1000090C100008EC100008CC100009C
S11300208AC1000088C1000086C10000A6C5000086
S113003082C1000080C100007EC100007CC10000BC
S11300407AC1000078C1000076C1000074C10000CC
S113005072C1000070C100006EC100006CC10000DC
S11300606AC1000068C1000066C1000064C10000EC
S113007033C6000060C100005EC100005CC1000026
S11300805AC1000058C1000056C1000054C100000C
S113009052C1000050C100004EC100004CC100001C
S11300A04AC1000048C1000046C1000044C100002C
S11300B042C1000040C100003EC100003CC100003C
S11300C03AC1000038C1000036C1000034C100004C
S11300D032C1000030C100002EC100002CC100005C
S11300E02AC1000028C1000028C6000024C1000065
S11300F022C1000020C100001EC100001CC100007C
S11301009BC5000018C1000016C1000014C1000006
S113011012C1000010C100000EC100000CC100009B
S11301200AC1000008C1000006C1000004C10000AB
S113013002C1000000C10000FEC00000FBC40000BA
S1130140FAC00000F8C00000F6C00000F4C00000CF
S1130150F2C00000F0C00000EEC00000ECC00000DF
S1130160EAC00000E8C00000E6C00000E4C00000EF
S1130170E2C00000E0C00000DEC00000DCC00000FF
S1130180DAC00000D8C00000D6C00000D4C000000F
S1130190D2C00000D0C00000CEC00000CCC000001F
S11301A0CAC00000C8C00000C6C00000C4C000002F
S11301B0C2C00000C0C00000BEC00000BCC000003F
S11301C0BAC00000B8C00000B6C00000B4C000004F
S11301D0B2C00000B0C00000AEC00000ACC000005F
S11301E0AAC00000A8C00000A6C00000A4C000006F
S11301F0A2C00000A0C000009EC000006E616E009E
S1130200696E660000407A10F35A00A0724E180915
S11302100010A5D4E80000E87648170000E40B5469
S1130220020000CA9A3B000000E1F5050000809638
S11302309800000040420F000000A086010000006A
S1130240102700000000E803000000006400000024
S113025000000A00000000000100000000002C76ED
S1130260D888DC674F0823DFC1DFAE59E1B1B79608
S1130270E5E3E453C63AE651997696E8E6C2842665
S1130280EB898C9B62ED407C6FFCEFBC9C9F40F241
S1130290BAA56FA5F490055A2AF75C936B6CF967BD
S11302A06DC11BFCE0E40D47FEF520E6B500D0ED82
S11302B0902E0300943577050080841E08000020EA
S11302C04E0A000000C80C333333330F986E128388
S11302D01141EF8D2114893BE65516CFFEE6DB185C
S11302E0D1844B381BF77C1D901DA4BBE424203221
S11302F084725E228100C9F124ECA1E53D2711241A
S11303001FBECFEFDFE2DEBFCDBF11E2A0E0B0E25F
S1130310E8E6F1E202C005900D92A837B107D9F7DB
S113032022E2A8E7B1E201C01D92AA3BB207E1F7BD
S11303304ED50C94B21064CEE0E0F2E083E0848306
S113034081E080A388E181A385E18A95F1F700002B
S113035080A1806880A383A18823E9F3E0E0F2E030
S113036081E083A380899189809390229093912244
S11303700895CF92DF92EF92FF92E0E0F2E080A145
S1130380806880A383A18823E9F3E0E0F2E081E0C0
S113039083A36089718980E090E00E94810D6B01E4
S11303A07C016091902270919122882777FD80953D
S11303B0982F0E94830D9B01AC01C701B6010E94D6
S11303C0B40C21EC3AEC41E050E40E940F0E2DEC09
S11303D03CEC4CE450E40E940F0E20E030EF4FE779
S11303E055E40E94190DFF90EF90DF90CF9008958F
S11303F0CF92DF92EF92FF92E0E0F2E080A5806876
S113040080A783A58823E9F3E0E0F2E081E083A7F5
S11304106289738980E090E00E94810D6B017C0108
S11304206091902270919122882777FD8095982F72
S11304300E94830D9B01AC01C701B6010E94B40C5C
S113044021EC3AEC41E050E40E940F0E20E030E051
S113045040E351E40E940F0E20E030EF4FE755E4F3
S11304600E94190DFF90EF90DF90CF9008952F9286
S11304703F924F925F926F927F928F929F92AF9230
S1130480BF92CF92DF92EF92FF920F931F93CF937D
S1130490DF93E0E0F2E080E281AB88E281AF80A903
S11304A0806880AB80AD806880AF83A98823E9F33E
S11304B0E0E0F2E081E083ABC489D58960919022C9
S11304C070919122882777FD8095982F0E94830D43
S11304D06B017C01BE0180E090E00E94810DA701C8
S11304E096010E94B40C662E772E882E992E862FA4
S11304F0972DA82DB92D8093962290939722A0939F
S11305009822B0939922E0E0F2E083AD8823E9F3E6
S1130510C0E0D2E081E08BAF6E897F8980E090E01B
S11305200E94810DA70196010E94B40C262E372E3D
S1130530482E592E862F932DA42DB52D80939E22BF
S113054090939F22A093A022B093A12280E389AB31
S113055088E389AF88A9806888AB88AD806888AF54
S1130560E0E0F2E083A98823E9F3E0E0F2E081E04F
S113057083AB6489758980E090E00E94810DA701B6
S113058096010E94B40CA62EB72E082F192F862F81
S11305909B2DA02FB12F8093A6229093A722A093E6
S11305A0A822B093A922E0E0F2E083AD8823E9F326
S11305B0E0E0F2E081E083AF6689778980E090E053
S11305C00E94810DA70196010E94B40CC62ED72E5D
S11305D0E82EF92E862F9D2DAE2DBF2D8093A222BD
S11305E09093A322A093A422B093A522222D332D6D
S11305F0442D552D662D772D882D992D0E94B40CF0
S113060021EC3AEC41E050E40E940F0E20E030EF80
S11306104FE755E40E94190D862E972ED82FC92F27
S1130620862F992DAD2FBC2F80939A2290939B22D5
S1130630A0939C22B0939D222A2D3B2D402F512F15
S11306406C2D7D2D8E2D9F2D0E94B40C21EC3AEC47
S113065041E050E40E940F0E20E030EF4FE755E4F4
S11306600E94190DE62FF72F462F572F682F792F49
S113067040939222509393226093942270939522F4
S113068020E030E847EA55E46E2F7F2F0E94190DD1
S11306909B01AC01682D792D8D2F9C2F0E94190D83
S11306A0DF91CF911F910F91FF90EF90DF90CF904A
S11306B0BF90AF909F908F907F906F905F904F907E
S11306C03F902F900895AAECB1E092E09C93E82F1C
S11306D0F0E084911C920895CF93DF9380E2F3DFDE
S11306E0C0E0D2E08C8781E2EEDF8D8788E3E0E032
S11306F0F6E08283888181608883198280E38A831B
S11307001BDE84E08C8381E088A388A788AB88AF54
S113071088E089A380E189A785E18A95F1F7000043
S1130720DF91CF910895B5D388E0E0E8F6E08183C6
S1130730E0EAFAE017828FEC86838581887F836004
S1130740858388E1848380E383830895E0EAFAE083
S1130750918195FFFDCF8093A00A0895CF93DF93F5
S1130760EC018881882329F02196F0DF8991811199
S1130770FCCFDF91CF910895CF92DF92EF92FF9259
S11307800F931F93CF93DF938C01C82ED12E60E17A
S113079070E2912F0E94860FEC01EE24EA94FE2C65
S11307A041C0FFCF62E170E2CE010E94890F282F81
S11307B0392F232B79F489E190E20E94061083E01B
S11307C090E034D181E090E08093B0229093B12204
S11307D065D330C065E270E2CE010E94890F282FF4
S11307E0392F232B31F48EE290E20E9406104CD371
S11307F021C06CE370E2CE010E94890F282F392FAB
S1130800232B49F484E490E20E9406100F2EF5E0B5
S1130810EF2EF12CF02D61E570E280E090E00E9473
S1130820860FEC01209731F08FEFE816F80609F4F3
S1130830B9CFB7CFEC2DFD2D80E8DF011D928A954D
S1130840E9F7F801E058FF4F10821182F801EE57E2
S1130850FF4F10821182DF91CF911F910F91FF9072
S1130860EF90DF90CF900895CF93DF93EC0183E571
S113087090E274DFCE0172DFDF91CF91089580E8BA
S1130880E0E4F6E08183E0EBF8E017828FEC868306
S11308908581887F8360858388E1848380E3838383
S11308A00895E0EBF8E0918195FFFDCF8093B008C7
S11308B00895EF92FF920F931F93CF93DF93CDB7D9
S11308C0DEB72597CDBFDEBFFE01319685E0DF019F
S11308D01D928A95E9F7E0E4F6E084E0818385835C
S11308E0BFEF27E833E1B15020403040E1F700C0CA
S11308F00000818386839FEFA1ECB1E09150A0407A
S1130900B040E1F700C000008583AFE3B1E0119788
S1130910F1F700C00000828381E197E203C00197F0
S113092009F459C0208522FFFACF81E197E2E0E47F
S1130930F6E003C0019709F451C0208522FDFACFE7
S1130940DE0111968E010A5F1F4FE0E4F6E061E0DC
S113095070E049EE53E026C0019711F442C0CA0189
S1130960F084F2FEF9CF8FEE90E00197F1F700C02A
S11309700000808582FF08C0CB01022E02C0880FD0
S1130980991F0A94E2F7E82ACA0102C0019761F1AB
S1130990F084F2FCFBCF2150310908F7ED92A01747
S11309A0B10721F027E030E0E12CD9CF89819B8188
S11309B03A81380F390F2C81320F2D81321317C031
S11309C09093AE221092AF228093B2221092B3225F
S11309D020E030E00EC021E030E00BC021E030E048
S11309E008C022E030E005C023E030E002C02FEF71
S11309F03FEF822F932F2596CDBFDEBFDF91CF919E
S1130A001F910F91FF90EF900895E0E6F6E090E1DA
S1130A10928388E0818384E0818382E0818381E022
S1130A2081832AE1208B92878187089527E0E0E67D
S1130A30F6E0258382309105B9F028F4009751F04F
S1130A40019729F50CC084309105C1F090F0059709
S1130A50F1F419C084E0E0E6F6E08683089582E0CC
S1130A60E0E6F6E08683089581E0E0E6F6E086833A
S1130A70089586E0E0E6F6E08683089585E0E0E602
S1130A80F6E08683089583E0E0E6F6E08683089541
S1130A9087E0E0E6F6E085830895809182229091D4
S1130AA08322813D27E0920798F420910020309121
S1130AB00120232B69F00196809382229093832254
S1130AC0803D974091F410920020109201200DC0B7
S1130AD001978093822290938322892B31F481E0C1
S1130AE090E080930020909301208FE99FE001978C
S1130AF0F1F700C0000080ED97E020918222309150
S1130B008322AC01421B530BE0E0F9E040A751A75C
S1130B102091842230918522AC01421B530B42A7C1
S1130B2053A72091862230918722821B930B84A79E
S1130B3095A708951F920F920FB60F9211242F9329
S1130B403F934F935F936F937F938F939F93AF9351
S1130B50BF93EF93FF93A1DFFF91EF91BF91AF910B
S1130B609F918F917F916F915F914F913F912F91C1
S1130B700F900FBE0F901F9018951F920F920FB6F3
S1130B800F9211240F931F932F933F934F935F93CF
S1130B906F937F938F939F93AF93BF93EF93FF9341
S1130BA080918C2290918D22A0918E22B0918F22DF
S1130BB00196A11DB11D80938C2290938D22A09348
S1130BC08E22B0938F2280389B4BA105B10508F08B
S1130BD05BD18091B0229091B1220197D1F4A9D137
S1130BE00091AA221091AB222091AC223091AD2227
S1130BF0DC01CB01801B910BA20BB30B883E93400D
S1130C00A105B10530F01092B0221092B1225BD14F
S1130C10A3D1FF91EF91BF91AF919F918F917F915C
S1130C206F915F914F913F912F911F910F910F9071
S1130C300FBE0F901F9018951F920F920FB60F9230
S1130C401124CF92DF92EF92FF920F931F932F9371
S1130C503F934F935F936F937F938F939F93AF9340
S1130C60BF93EF93FF9365D100918822109189225D
S1130C7020918A2230918B226B017C01C01AD10A07
S1130C80E20AF30A970186010333110521053105B0
S1130C9020F028E0E0E6F6E0278360938822709352
S1130CA0892280938A2290938B22FF91EF91BF91A6
S1130CB0AF919F918F917F916F915F914F913F91F0
S1130CC02F911F910F91FF90EF90DF90CF900F9095
S1130CD00FBE0F901F9018951F920F920FB60F9290
S1130CE011242F933F934F935F936F937F938F932D
S1130CF09F93AF93BF93EF93FF938091B0088D3090
S1130D0041F46EEF71E280E0A7D28EEF91E234DD20
S1130D1003C06EEF71E2A0D2FF91EF91BF91AF914A
S1130D209F918F917F916F915F914F913F912F91FF
S1130D300F900FBE0F901F9018951F920F920FB631
S1130D400F9211242F933F934F935F936F937F934D
S1130D508F939F93AF93BF93CF93EF93FF93C091E0
S1130D60A00A8C2F992787FD90950E940110CA3004
S1130D7041F46AE771E280E06FD28AE791E2FCDC39
S1130D8004C06AE771E28C2F67D2FF91EF91CF9193
S1130D90BF91AF919F918F917F916F915F914F918F
S1130DA03F912F910F900FBE0F901F90189588EDD3
S1130DB084BF82E080935000E0E5F0E0818181FF10
S1130DC0FDCF88ED84BF81E08093400008951092A8
S1130DD0B0221092B12249D076D0E9DF7DDC15DE55
S1130DE057DE82E090E022DEC4DA78D08AD047DD94
S1130DF09ADCA0E2B6E028E011962C9311971596A0
S1130E002C93159784E011968C93119715968C93D7
S1130E101597E0E4F6E081E0828382E090E280933B
S1130E20B6229093B7227894C0EAD0E03A81356034
S1130E303A8380E2828380E18183868321832583D0
S1130E4082E011968C938BE590E20EDD2FEF8FE418
S1130E5093EC215080409040E1F700C00000FFCFA8
S1130E6082E0E0E8F6E085830895CF93C2E0E0E80D
S1130E70F6E0C183F5DF88E0E0E4F6E08183E0E2B8
S1130E80F6E0C183CF91089582E0E0E8F6E086833E
S1130E90089588E0E0E4F6E08583089582E0E0E2E6
S1130EA0F6E0858383E090E0C1DD8AE690E20E946B
S1130EB006103FD06093AA227093AB228093AC2299
S1130EC09093AD22089582E0E0E2F6E0868383E722
S1130ED090E20E94061081E090E0A8CD88ED84BFE6
S1130EE0E0E5F0E080818460808385E0E0E4F0E088
S1130EF0838380930004E0E0F4E0818180FDFDCFF2
S1130F000895E0E0F4E089E090E08287938710861A
S1130F1011868487958781E080838CE0828308959D
S1130F2010928C2210928D2210928E2210928F2277
S1130F3008950F931F93F89400918C2210918D22A1
S1130F4020918E2230918F227894602F712F822FDE
S1130F50932F1F910F9108954F925F926F927F92FA
S1130F608F929F92AF92BF92CF92DF92EF92FF92B5
S1130F700F931F93CF93DF93CDB7DEB7C055D1093D
S1130F80CDBFDEBFCDDFD5DF94DC0097D9F48091EF
S1130F90B3228F938091B2228F9385E890E29F933E
S1130FA08F930E94F00F8091AF228F938091AE2295
S1130FB08F9384E990E29F938F930E94F00FCDBFAB
S1130FC0DEBF0CC09F938F9386EA90E29F938F932A
S1130FD00E94F00F0F900F900F900F90CAD9D62E49
S1130FE0C72EB82EA92E04DA962E872E782E692EB7
S1130FF00FE010E0412C512CE12CF12C38DA9B014C
S1131000AC01642D752D8E2D9F2DAFD4462E572EF9
S1131010E82EF92E0150110989F720E030E040E76D
S113102051E407D5162F072FF82EE92E8091A5221B
S11310308F938091A4228F938091A3228F93809188
S1131040A2228F938091A9228F938091A8228F93BB
S11310508091A7228F938091A6228F938091A122C1
S11310608F938091A0228F9380919F228F93809160
S11310709E228F93809199228F93809198228F93AF
S1131080809197228F93809196228F938FEB90E299
S11310909F938F93A5D721EC3AEC41E050E4609103
S11310A0A2227091A3228091A4229091A522B7D567
S11310B020E030E040E859E3B2D59F938F937F93CB
S11310C06F9321EC3AEC41E050E46091A6227091D8
S11310D0A7228091A8229091A922A1D520E030E0F6
S11310E040E859E39CD59F938F937F936F9321ECB2
S11310F03AEC41E050E460919E2270919F228091ED
S1131100A0229091A1228BD520E030E040E859E361
S113111086D59F938F937F936F9321EC3AEC41E0B4
S113112050E4609196227091972280919822909138
S1131130992275D520E030E040E859E370D59F93BB
S11311408F937F936F9383EF90E29F938F9348D70E
S1131150CDBFDEBF809195228F93809194228F938F
S1131160809193228F93809192228F9380919D22DC
S11311708F9380919C228F9380919B228F93809157
S11311809A228F938CE191E29F938F9329D7EF92C8
S1131190FF920F931F9383E391E29F938F9320D742
S11311A0AF92BF92CF92DF9285E491E29F938F93A7
S11311B017D76F927F928F929F9281E491E29F93CF
S11311C08F930ED76F927F928F929F92AF92BF921E
S11311D0CF92DF928091B3228F938091B2228F932A
S11311E08091AF228F938091AE228F93EF92FF92E2
S11311F00F931F9381E591E29F938F938E010F5F6D
S11312001F4F1F930F9331D7CDBFDEBF1F930F9393
S113121083E791E29F938F93E3D6C8019FDA53DE6D
S113122082E090E003DC0F900F900F900F90C05B72
S1131230DF4FCDBFDEBFDF91CF911F910F91FF90A4
S1131240EF90DF90CF90BF90AF909F908F907F9062
S11312506F905F904F900895FB01E058FF4F4081DD
S113126051819A012F5F3F4F2F773078332334F425
S11312702150310920683F6F2F5F3F4FFB01EE572C
S1131280FF4F0190F081E02DE217F30749F0FB01D5
S1131290E40FF51F8083FB01E058FF4F2083318367
S11312A00895A2E1B0E0E6E5F9E01CC57C011B016C
S11312B06A01FC0116821782838181FD03C04EC33B
S11312C0650105C088248394912C8C0E9D1EF70122
S11312D09381F10193FD859193FF81911F018823EF
S11312E009F438C3853239F493FD859193FF8191D4
S11312F01F01853229F4B70190E046D65601E0CFAC
S1131300712C612C20E02032A8F48B3261F028F497
S1131310803251F0833271F40BC08D3239F0803356
S113132049F4216028C02260246025C0286023C0BD
S1131330206121C027FD27C0382F30533A3078F47C
S113134026FF06C0FAE07F9E300D1124732E13C0D1
S11313504AE0649E300D1124632E20620CC08E324C
S113136021F426FDF7C2206406C08C3611F42068EF
S113137002C0883641F4F10193FD859193FF819178
S11313801F018111C0CF982F9554933018F4206118
S1131390805E06C0982F9556933008F094C12F7E36
S11313A026FD02C016E0712EBFE35B2E5222853665
S11313B019F4F0E45F2A07C0863619F440E8542A89
S11313C002C071107A9457FE07C05BE3571548F0CA
S11313D0472C439427E00DC087E0871530F0272D74
S11313E007C027E0ACE34A2E04C027E0F7E07F2ED5
S11313F0412C560194E0A90EB11CF6016081718163
S113140082819381042DA4019ED48C0149814C874F
S113141040FF02C043FF07C051FC08C052FE09C090
S1131420E0E2DE2E07C07DE2D72E04C06BE2D62EAA
S113143001C0D12C8C858C7089F1DD2011F084E001
S113144001C083E0861510F0612C0AC0681A53FCB1
S113145007C0B70180E290E097D56A94D1F7F4CF42
S1131460DD2021F0B7018D2D90E08ED55C8553FDF4
S113147003C000E012E00BC00CEF11E008C05110F3
S11314808052B70190E080D50F5F1F4F02C080E10A
S11314905822F80184918111F2CF59C257FE0EC02F
S11314A0400E4C8544FF04C08A81813309F44A9478
S11314B014144CF558E0541548F12CC056FC2AC0BD
S11314C0872D90E08017910744F00C3F8FEF1807A9
S11314D024F090E8592A01C07A94772049F0E2E098
S11314E0F0E0EC0FFD1FE70DF11D80818033A1F3C7
S11314F057FE10C0472C4394872D90E00817190716
S113150044F4701A07C04424439404C058E0452EA0
S113151001C0712C57FE07C0101611063CF4980147
S11315202F5F3F4F05C025E030E002C021E030E0EE
S1131530DD2011F02F5F3F4F772031F0472D50E031
S11315404F5F5F4F240F351F462D50E0241735079A
S113155014F4621A01C0612C852D897041F405C010
S1131560B70180E290E010D56A946110F9CFDD20D4
S113157021F0B7018D2D90E007D553FC08C005C0BC
S1131580B70180E390E000D56A946110F9CF57FE6B
S113159054C0680117FF02C0C12CD12C20E030E0F8
S11315A0A801441951094D875E8728014C185D082C
S11315B0480C591C872D90E044275527481B590B8C
S11315C04F87588B5FEFC516D50641F4B7018EE2FD
S11315D090E02A8B398BD8D439892A890C151D05BA
S11315E054F04D855E854C155D052CF4F201E20F37
S11315F0F31F818101C080E351E0C51AD1082F5F38
S11316003F4F4F855889C416D50644F0B70190E082
S11316102A8B398BB9D42A893989D4CFC016D106FB
S113162049F49A81963328F4953321F45C8554FD6A
S113163001C081E3B70190E044C08A81813319F08D
S11316404C854F7E4C87B70190E09ED4711005C045
S113165054FE14C085E490E013C0B7018EE290E01C
S113166093D442E0D42EF401ED0DF11DD394B701CF
S1131670808190E089D47A94B1F7EACF85E690E04E
S1131680B70182D417FD06C00115110541F45C852C
S113169054FF05C01195019511098DE201C08BE23B
S11316A0B70190E071D480E303C08F5F0A50110941
S11316B00A301105D4F7B70190E066D4B701C80128
S11316C0C09662D444C1833631F0833781F08335C8
S11316D009F05AC023C0560182E0A80EB11CF601DD
S11316E080818983CC24C394D12C840113C05601F6
S11316F0F2E0AF0EB11CF6010081118126FF03C098
S1131700672D70E002C06FEF7FEFC8012A8B0AD407
S11317106C012A899FE7592E522216C05601F2E025
S1131720AF0EB11CF6010081118126FF03C0672DA5
S113173070E002C06FEF7FEFC8012A8BDCD36C012D
S11317402A8980E8582E522A53FC1AC005C0B701D2
S113175080E290E019D46A94862D90E0C816D906E8
S1131760B0F30EC0F80157FC859157FE81918F01AB
S1131770B70190E009D461106A94F1E0CF1AD1085E
S1131780C114D10479F7E3C0843611F0893649F5E0
S1131790560127FF09C044E0A40EB11CF601608184
S11317A07181828193810AC0F2E0AF0EB11CF6010F
S11317B060817181882777FD8095982F122F1F767D
S11317C097FF08C090958095709561957F4F8F4FD6
S11317D09F4F10682AE030E0A40166D4D82ED818B0
S11317E03FC0122F853721F41F7E2AE030E01FC04E
S11317F0197F8F36A1F020F4883509F0ABC00BC0F7
S1131800803721F0883709F0A5C001C0106114FFAA
S113181009C0146007C024FF08C0166006C028E091
S113182030E005C020E130E002C020E132E05601A2
S113183017FF09C0F4E0AF0EB11CF601608171819D
S11318408281938108C0F2E0AF0EB11CF601608181
S1131850718180E090E0A40127D4D82ED8181F7796
S113186016FF0BC0212F2E7FD71450F414FF0AC08B
S113187012FD08C0212F2E7E05C00D2D212F03C07F
S11318800D2D01C0072D24FF0CC0FE01ED0DF11D2F
S11318908081803311F4297E08C022FF05C00E5FC9
S11318A004C0822F867809F00F5F23FD13C020FF48
S11318B00EC07D2C061558F4760C701A062D07C040
S11318C0B70180E290E02A8B5FD30F5F2A89061567
S11318D0B8F304C0061510F4601A01C0612C24FF8B
S11318E011C0B70180E390E02A8B4ED32A8922FFEE
S11318F01CC021FF03C088E590E002C088E790E0A7
S1131900B7010CC0822F867881F021FD02C080E2ED
S113191001C08BE227FD8DE2B70190E035D305C00D
S1131920B70180E390E030D37A94D714C8F3DA9403
S1131930F401ED0DF11DB701808190E025D3D110A4
S1131940F6CF05C0B70180E290E01ED36A9461101F
S1131950F9CFB6CCF7012681378102C02FEF3FEFD4
S1131960C9016296E2E1D7C15058BB27AA270ED01D
S11319701CC10DD130F012D120F031F49F3F11F48D
S11319801EF402C10EF4E095E7FBF8C0E92F1ED166
S113199080F3BA17620773078407950718F071F488
S11319A09EF536C10EF4E0950B2EBA2FA02D0B0137
S11319B0B90190010C01CA01A0011124FF27591B90
S11319C099F0593F50F4503E68F11A16F040A22F96
S11319D0232F342F4427585FF3CF46953795279507
S11319E0A795F0405395C9F77EF41F16BA0B620B06
S11319F0730B840BBAF09150A1F0FF0FBB1F661F4D
S1131A00771F881FC2F70EC0BA0F621F731F841F8F
S1131A1048F4879577956795B795F7959E3F08F0B5
S1131A20B3CF9395880F08F09927EE0F9795879574
S1131A3008950CD0BAC0B2D040F0A9D030F021F44F
S1131A405F3F19F09BC05111E4C09EC0BFD098F312
S1131A509923C9F35523B1F3951B550BBB27AA272B
S1131A6062177307840738F09F5F5F4F220F331F9D
S1131A70441FAA1FA9F333D00E2E3AF0E0E830D069
S1131A8091505040E695001CCAF729D0FE2F27D06C
S1131A90660F771F881FBB1F261737074807AB073A
S1131AA0B0E809F0BB0B802DBF01FF2793585F4FAF
S1131AB02AF09E3F510568F061C0ABC05F3FECF374
S1131AC0983EDCF3869577956795B795F7959F5F74
S1131AD0C9F7880F911D9695879597F90895E1E0C8
S1131AE0660F771F881FBB1F621773078407BA0727
S1131AF020F0621B730B840BBA0BEE1F88F7E09582
S1131B000895E89409C097FB3EF4909580957095EC
S1131B1061957F4F8F4F9F4F9923A9F0F92F96E935
S1131B20BB279395F695879577956795B795F111AA
S1131B30F8CFFAF4BB0F11F460FF1BC06F5F7F4F47
S1131B408F4F9F4F16C0882311F096E911C0772359
S1131B5021F09EE8872F762F05C0662371F096E862
S1131B60862F70E060E02AF09A95660F771F881F31
S1131B70DAF7880F9695879597F9089597F99F67EF
S1131B8080E870E060E008959FEF80EC0895002401
S1131B900A941616170618060906089500240A94CE
S1131BA012161306140605060895092E0394000C54
S1131BB011F4882352F0BB0F40F4BF2B11F460FFE3
S1131BC004C06F5F7F4F8F4F9F4F089557FD90580C
S1131BD0440F551F59F05F3F71F04795880F97FBED
S1131BE0991F61F09F3F79F08795089512161306A7
S1131BF01406551FF2CF4695F1DF08C016161706D6
S1131C001806991FF1CF869571056105089408950A
S1131C10E894BB2766277727CB0197F908950BD063
S1131C20C4CFB5DF28F0BADF18F0952309F0A6CFAA
S1131C30ABCF1124EECFCADFA0F3959FD1F3950F5C
S1131C4050E0551F629FF001729FBB27F00DB11D3C
S1131C50639FAA27F00DB11DAA1F649F6627B00DCC
S1131C60A11D661F829F2227B00DA11D621F739FB5
S1131C70B00DA11D621F839FA00D611D221F749FC3
S1131C803327A00D611D231F849F600D211D822F0A
S1131C90762F6A2F11249F5750408AF0E1F0882351
S1131CA04AF0EE0FFF1FBB1F661F771F881F91505E
S1131CB05040A9F79E3F510570F060CFAACF5F3F17
S1131CC0ECF3983EDCF3869577956795B795F79591
S1131CD0E7959F5FC1F7FE2B880F911D9695879519
S1131CE097F908952F923F924F925F926F927F924D
S1131CF08F929F92AF92BF92CF92DF92EF92FF9218
S1131D000F931F93CF93DF93CDB7DEB7CA1BDB0BC3
S1131D10CDBFDEBF09942A88398848885F846E84E1
S1131D207D848C849B84AA84B984C884DF80EE80FB
S1131D30FD800C811B81AA81B981CE0FD11DCDBF3D
S1131D40DEBFED010895283008F027E03327DA01DB
S1131D50990F311D87FD916000966105710539F475
S1131D6032602E5F3D9330E32A95E1F708959F3F5B
S1131D7030F080387105610509F03C5F3C5F3D93AC
S1131D80913008F08068911DDF93CF931F930F93D8
S1131D90FF92EF92192F987F9695E92F9695969535
S1131DA0E90FFF27E25AFD4F99273327EE24FF243A
S1131DB0A701E70105900894079428F4360FE71E5D
S1131DC0F81E491F511D660F771F881F991F06941F
S1131DD0A1F70590079428F4E70EF81E491F561F33
S1131DE0C11D770F881F991F661F0694A1F70590E0
S1131DF0079428F4F80E491F561FC71FD11D880FDA
S1131E00991F661F771F0694A1F70590079420F485
S1131E10490F561FC71FD81F990F661F771F881FAA
S1131E200694A9F784911095177041F0D695C7953B
S1131E3057954795F794E7941A95C1F7E4E0F2E0D3
S1131E4068941590159135916591959105907FE26F
S1131E507395E118F10A430B560BC90BD009C0F76F
S1131E60E10CF11E431F561FC91FD01D7EF47033B1
S1131E7011F48A95E6CFE894015030F0080F0AF483
S1131E800027021708F4202F2395022F7A3328F015
S1131E9079E37D932A95E9F710C07D932A9589F615
S1131EA0069497956795379517951794E118F10A55
S1131EB0430B560BC90BD00998F023957E9173956B
S1131EC07A3308F070E37C932013B8F77E91706145
S1131ED07D9330F0839571E37D9370E32A95E1F768
S1131EE01124EF90FF900F911F91CF91DF919927CB
S1131EF087FD90950895FC01059061507040011094
S1131F00D8F7809590958E0F9F1F089548E751E26A
S1131F1014C0FB01DC018D91019080190110D9F3EB
S1131F20990B0895FC016150704001900110D8F79D
S1131F30809590958E0F9F1F0895FA01A191B0810D
S1131F40009719F41097E1F0CD01DC01CD010D905B
S1131F50002011F4C00113C0FB012191222319F0C8
S1131F602015D9F7F3CFFB012191201519F41E9206
S1131F70119606C02223C1F70D900020A1F7D001CD
S1131F80FA01A193B08308950F931F93CF93DF9326
S1131F908C01EB018B8181FD03C00FEF1FEF1AC091
S1131FA082FF0DC02E813F818C819D8128173907C6
S1131FB064F4E881F9810193E883F98306C0E88534
S1131FC0F985802F0995892B41F78E819F81019690
S1131FD08E839F83C801DF91CF911F910F91089544
S1131FE0A0E0B0E0E5EFFFE08DCEFE013596619113
S1131FF07191AF018091B6229091B72252D9E2E05B
S11320009ACE6091B6227091B722BECF0F931F93E0
S1132010CF93DF938C01E091B622F091B7228381B4
S113202081FF1BC0C0E0D0E005C00995892B11F0E9
S1132030CFEFDFEFF80181918F016091B6227091AB
S1132040B722DB011896ED91FC9119978111EDCF20
S11320508AE00995892B09F402C0CFEFDFEFCE01A6
S1132060DF91CF911F910F910895AEE0B0E0EAE3C4
S1132070F0E146CE0D891E8986E08C8309831A839C
S11320808FEF9FE78D839E83CE014996AC016F89C4
S1132090788DCE01019605D9EF81F885E00FF11F07
S11320A010822E96E4E045CEFA01AA27283051F199
S11320B0203181F1E8946F936E7F6E5F7F4F8F4F75
S11320C09F4FAF4FB1E03ED0B4E03CD0670F781FD4
S11320D0891F9A1FA11D680F791F8A1F911DA11DB9
S11320E06A0F711D811D911DA11D20D009F46894F2
S11320F03F912AE0269F11243019305D3193DEF69A
S1132100CF010895462F4770405D4193B3E00FD04F
S1132110C9F7F6CF462F4F70405D4A3318F0495D3A
S113212031FD4052419302D0A9F7EACFB4E0A6951D
S11321309795879577956795BA95C9F7009761053F
S1132140710508959B01AC010A2E06945795479595
S113215037952795BA95C9F7620F731F841F951F8A
S10B2160A01D0895F894FFCFBF
S1132168010000000002000000005104000000000B
S11321782D0077616B6575700077616B65757020EC
S113218861636B0D0073687574646F776E007368B0
S11321987574646F776E2061636B0D007365746E7C
S11321A8616D65007365746E616D652061636B0DA7
S11321B800200041542B4E414D4500736E756666F0
S11321C8656C6E6575735769740048656174696EEA
S11321D8670D00506F776572206F666620686561C9
S11321E87465720D0048756D69646974793A0925D6
S11321F8640D0A0054656D70657261747572653A90
S11322080925640D0A00466F7574652044544831E5
S113221831206D6574696E673A0925640D0A0041B9
S113222844432773207275773A20312028252E30AD
S113223866292C20322028252E3066292C2033208C
S113224828252E3066292C20342028252E3066296E
S11322580D0A004144432773203A2031202825667B
S1132268292C203220282566292C2033202825666D
S1132278292C203420282566290D0A005653454E5A
S1132288203A2025662C2056524553203A202566AC
S11322980D0A00526573756C74203A2025660D0A80
S11322A8003132562041636375203A2025660D0AB1
S11322B800526573756C742D2D252E30662D2D25D1
S11322C8642D2D25642D2D25662D2D25662D2D4552
S10B22D84F4D0025730D0A00AF
S9030000FC
